:100000000C9435000C945D000C945D000C949702E8
:100010000C945D000C945D000C945D000C94BD018B
:100020000C945D000C945D000C945D000C945D00DC
:100030000C945D000C945D000C945D000C945D00CC
:100040000C945D000C945D000C948B010C94650184
:100050000C945D000C945D000C945D000C945D00AC
:100060000C945D000C945D00D70211241FBECFEFED
:10007000D8E0DEBFCDBF11E0A0E0B1E0E2EEF8E0F5
:1000800002C005900D92A033B107D9F721E0A0E39B
:10009000B1E001C01D92A53DB207E1F710E0C5E354
:1000A000D0E004C02197FE010E946904C433D10747
:1000B000C9F70E9404030C946F040C940000AF92E3
:1000C000BF92CF92DF92EF92FF920F931F93CF9345
:1000D000DF936C017B018B01040F151FEB015E01A7
:1000E000AE18BF08C017D10759F06991D601ED913C
:1000F000FC910190F081E02DC6010995892B79F7DB
:10010000C501DF91CF911F910F91FF90EF90DF908C
:10011000CF90BF90AF900895FC01538D448D252F53
:1001200030E0842F90E0821B930B541710F0CF9691
:10013000089501970895FC01918D828D981761F0C3
:10014000A28DAE0FBF2FB11D5D968C91928D9F5FDA
:100150009F73928F90E008958FEF9FEF0895FC01B9
:10016000918D828D981731F0828DE80FF11D858D6C
:1001700090E008958FEF9FEF0895FC01918D228DFF
:10018000892F90E0805C9F4F821B91098F73992784
:100190000895FC01A48DA80FB92FB11DA35ABF4F1C
:1001A0002C91848D90E001968F739927848FA68976
:1001B000B7892C93A089B1898C91837080648C93CA
:1001C000938D848D981306C00288F389E02D808179
:1001D0008F7D80830895EF92FF920F931F93CF93AB
:1001E000DF93EC0181E0888F9B8D8C8D98131AC072
:1001F000E889F989808185FF15C09FB7F894EE8959
:10020000FF896083E889F9898081837080648083B5
:100210009FBF81E090E0DF91CF911F910F91FF9000
:10022000EF900895F62E0B8D10E00F5F1F4F0F73A8
:100230001127E02E8C8D8E110CC00FB607FCFACF63
:10024000E889F989808185FFF5CFCE010E94C90038
:10025000F1CFEB8DEC0FFD2FF11DE35AFF4FF08234
:100260009FB7F8940B8FEA89FB8980818062CFCF9A
:10027000CF93DF93EC01888D8823B9F0AA89BB89DD
:10028000E889F9898C9185FD03C0808186FD0DC0C8
:100290000FB607FCF7CF8C9185FFF2CF808185FFE9
:1002A000EDCFCE010E94C900E9CFDF91CF91089533
:1002B000FC0101900020E9F73197AF01481B590B71
:1002C000BC0188E391E00C945F001F920F920FB67F
:1002D0000F9211242F933F934F935F936F937F93CC
:1002E0008F939F93AF93BF93EF93FF9388E391E036
:1002F0000E94C900FF91EF91BF91AF919F918F91A3
:100300007F916F915F914F913F912F910F900FBE11
:100310000F901F9018951F920F920FB60F921124F5
:100320002F938F939F93EF93FF93E0914801F09168
:1003300049018081E0914E01F0914F0182FD1BC087
:100340009081809151018F5F8F73209152018217AC
:1003500041F0E0915101F0E0E85CFE4F958F809311
:100360005101FF91EF919F918F912F910F900FBEAF
:100370000F901F9018958081F4CF1F920F920FB6A7
:100380000F9211248F929F92AF92BF92CF92DF92E1
:10039000EF92FF922F933F934F935F936F937F93CF
:1003A0008F939F93AF93BF93EF93FF93CF93DF937D
:1003B000CDB7DEB7A197DEBFCDBF8091360190915A
:1003C0003701019690933701809336018091340173
:1003D00090913501089759F410923501109234012B
:1003E0001092B10010923701109236015E9A8091FE
:1003F000360190913701883E934009F05CC0C0906F
:100400003401D09035018FEFC81AD80AD092350147
:10041000C09234010D2C000CEE08FF08F7FE6CC0F2
:100420006DE288E391E00E94EB0022273327A901C7
:100430002C193D094E095F0919A2FE01B1967F01F1
:100440009AE0892E912CA12CB12CCA01B901A501E9
:1004500094010E944704605DF70162937F012115BA
:1004600031054105510589F7E114F10419F0C7017F
:100470000E94580182E191E00E94580110923701D8
:100480001092360120E030E04FEF51E460913001EE
:100490007091310180913201909133010E94540397
:1004A0006093300170933101809332019093330156
:1004B0000E94C00367BDA1960FB6F894DEBF0FBEC1
:1004C000CDBFDF91CF91FF91EF91BF91AF919F9100
:1004D0008F917F916F915F914F913F912F91FF90FD
:1004E000EF90DF90CF90BF90AF909F908F900F9044
:1004F0000FBE0F901F901895A701960119A2CE016B
:1005000081967C018AE0882E912CA12CB12CCA0105
:10051000B901A50194010E944704605DF70162934F
:100520007F01211531054105510589F79DCF1F92A6
:100530000F920FB60F9211242F933F934F935F9317
:100540006F937F938F939F93AF93BF93EF93FF939B
:10055000199B05C08091B10083608093B1001A9906
:1005600015C01092B1001092B20085E191E00E9496
:10057000580182E191E00E945801109230011092DE
:100580003101109232011092330117BCFF91EF91AB
:10059000BF91AF919F918F917F916F915F914F919B
:1005A0003F912F910F900FBE0F901F901895E8E389
:1005B000F1E01382128288EE93E0A0E0B0E0848341
:1005C0009583A683B78384E091E09183808385EC53
:1005D00090E09587848784EC90E09787868780EC0D
:1005E00090E0918B808B81EC90E0938B828B82ECFE
:1005F00090E0958B848B86EC90E0978B868B118EA8
:10060000128E138E148E0895E0914801F0914901E5
:1006100092E09083E0914401F09145011082E091D5
:100620004601F09147018FEC808310925001E091D8
:100630004C01F0914D0126E02083E0914A01F091B8
:100640004B01808180618083E0914A01F0914B01F0
:10065000808188608083E0914A01F0914B01808124
:1006600080688083E0914A01F0914B0180818F7D09
:10067000808380E48AB95E9884E085B981E08093C4
:10068000680020936B0083E08093B00089EF809333
:10069000B3009093700084B5836884BD85E085BD08
:1006A00017BC7894FFCF5058BB27AA270E946B0332
:1006B0000C940D040E94FF0338F00E94060420F001
:1006C00039F49F3F19F426F40C94FC030EF4E095E2
:1006D000E7FB0C94F603E92F0E941E0458F3BA17A7
:1006E000620773078407950720F079F4A6F50C9448
:1006F00040040EF4E0950B2EBA2FA02D0B01B9018A
:1007000090010C01CA01A0011124FF27591B99F087
:10071000593F50F4503E68F11A16F040A22F232F93
:10072000342F4427585FF3CF469537952795A795E3
:10073000F0405395C9F77EF41F16BA0B620B730B8A
:10074000840BBAF09150A1F0FF0FBB1F661F771FFB
:10075000881FC2F70EC0BA0F621F731F841F48F4B0
:10076000879577956795B795F7959E3F08F0B0CF39
:100770009395880F08F09927EE0F97958795089520
:100780000E94C7036894B1110C94410408950E941B
:10079000260488F09F5798F0B92F9927B751B0F0E9
:1007A000E1F0660F771F881F991F1AF0BA95C9F7F5
:1007B00014C0B13091F00E944004B1E008950C944F
:1007C0004004672F782F8827B85F39F0B93FCCF302
:1007D000869577956795B395D9F73EF49095809572
:1007E000709561957F4F8F4F9F4F089597F99F6741
:1007F00080E870E060E008959FEF80EC08950024A9
:100800000A941616170618060906089500240A9475
:1008100012161306140605060895092E0394000CFB
:1008200011F4882352F0BB0F40F4BF2B11F460FF8A
:1008300004C06F5F7F4F8F4F9F4F089557FD9058B3
:10084000440F551F59F05F3F71F04795880F97FB94
:10085000991F61F09F3F79F087950895121613064E
:100860001406551FF2CF4695F1DF08C0161617067D
:100870001806991FF1CF86957105610508940895B2
:10088000E894BB2766277727CB0197F90895A1E263
:100890001A2EAA1BBB1BFD010DC0AA1FBB1FEE1FFA
:1008A000FF1FA217B307E407F50720F0A21BB30B45
:1008B000E40BF50B661F771F881F991F1A9469F7C1
:1008C00060957095809590959B01AC01BD01CF011D
:1008D0000895EE0FFF1F0590F491E02D0994F89410
:0208E000FFCF48
:1008E20000000000EB005F008C003801BD009B009F
:1008F200AF000D0A00424F54C3834F204445534C6E
:10090200494741205052455353494F4E41444F00AD
:00000001FF
